:100000000C941E010C943B010C943B010C943B019D
:100010000C943B010C943B010C943B010C943B0170
:100020000C943B010C943B010C943B010C943B0160
:100030000C943B010C943B010C943B010C943B0150
:100040000C943B010C943B010C943B010C943B0140
:100050000C943B010C943B010C943B010C943B0130
:100060000C943B010C943B010C943B010C943B0120
:100070000C94181B0C943B010C943B016C1A701AE5
:10008000721A761A7F1A831A8C1A901A991AA21A5F
:10009000084AD73B3BCE016E84BCBFFDC12F3D6CEF
:1000A00074319ABD56833DDA3D00C77F11BED9E455
:1000B000BB4C3E916BAAAABE000000803F05A84C35
:1000C000CDB2D44EB93836A9020C50B99186880801
:1000D0003CA6AAAA2ABE000000803F0664EC1B3C96
:1000E00004BC163E3BE5B93CC93C37C29E5A3D664E
:1000F0000498083EEA69AAAA3E000000803F6E61AB
:100100006E00696E660000407A10F35A00A0724ECD
:1001100018090010A5D4E80000E87648170000E4AC
:100120000B54020000CA9A3B000000E1F5050000F4
:1001300080969800000040420F000000A086010059
:100140000000102700000000E80300000000640029
:10015000000000000A000000000001000000000094
:100160002C76D888DC674F0823DFC1DFAE59E1B1B8
:10017000B796E5E3E453C63AE651997696E8E6C2C7
:100180008426EB898C9B62ED407C6FFCEFBC9C9FCE
:1001900040F2BAA56FA5F490055A2AF75C936B6CF0
:1001A000F9676DC11BFCE0E40D47FEF520E6B500E4
:1001B000D0ED902E0300943577050080841E080052
:1001C00000204E0A000000C80C333333330F986E02
:1001D00012831141EF8D2114893BE65516CFFEE6BF
:1001E000DB18D1844B381BF77C1D901DA4BBE42485
:1001F000203284725E228100C9F124ECA1E53D2702
:10020000494E46494E4954594E414ECDCCCC3D0AFB
:10021000D7233C17B7D13877CC2B329595E6241FDE
:10022000B14F0A000020410000C84200401C462097
:10023000BCBE4CCA1B0E5AAEC59D740011241FBE15
:10024000CFEFD0E1DEBFCDBF15E0A0E0B1E0E2EC42
:10025000F0E502C005900D92AE39B107D9F71AE06A
:10026000AEE9B5E001C01D92AB39B107E1F70E94DC
:100270003F010C945F280C940000579808952F922A
:100280003F925F926F927F928F929F92AF92BF92B6
:10029000CF92DF92EF92FF920F931F93DF93CF9352
:1002A000CDB7DEB7CA5DD2400FB6F894DEBF0FBE41
:1002B000CDBF0E94B2020E94BD110E945A1B0E9433
:1002C0000E1B00D080E091E0EDB7FEB792838183F2
:1002D0000E94CD110F900F900E947704882361F047
:1002E00000D084E191E0EDB7FEB7928381830E9454
:1002F000CD110F900F90FFCF80E090E00E9431066B
:10030000579800D084E291E0EDB7FEB792838183E5
:100310000E94CD110F900F900E94E9128DE2898307
:100320008CE58A838CE78B838FE28C8300E010E07E
:100330006CE7E62EF12CEC0EFD1E56E1A52EB12C3D
:10034000AC0EBD1E4CE2842E41E0942E6E0108944A
:10035000C11CD11CC7010E94EA02C701B5010E945D
:100360003A1A502E539400D000D0EDB7FEB79282C7
:100370008182F801E370F070EC0DFD1D80819927FA
:1003800087FD9095EDB7FEB7948383830E94CD11CE
:100390000F5F1F4F0F900F900F900F908EA1813421
:1003A000C9F600D08BE391E0EDB7FEB7928381836D
:1003B0000E94CD11BB2410E0EE24FF240F900F907B
:1003C0003CE7632E712C6C0E7D1E29E4C22ED12CCD
:1003D000CC0EDD1E9CEB892E912C8C0E9D1E85E093
:1003E000282E312C2C0E3D1E01C010E0C3010E94AE
:1003F000EA02112331F0C301BE016A5E7F4F0E9401
:100400003A1AC301B6010E943A1ABB2089F04F99EB
:100410000FC000D028E431E0EDB7FEB7328321836E
:100420000E94CD110F900F90C4010E940213BB24B3
:10043000F60180898134F9F0852D8370E1E0F0E0E8
:10044000EC0FFD1FE80FF11D8081992787FD909526
:10045000539400D000D02AE531E0EDB7FEB73283E7
:100460002183948383830E94CD1110E00F900F901D
:100470000F900F90BBCFCE014696B601A1010E940E
:10048000EF158DB79EB70A970FB6F8949EBF0FBEB3
:100490008DBF0DB71EB70F5F1F4F2BE631E0EDB7D5
:1004A000FEB73283218369857A858B859C850E947E
:1004B000FA24F801738362836D857E858F85988920
:1004C0000E94FA24F801758364836D817E818F8197
:1004D00098850E94FA24F80177836683F601638D7C
:1004E000748D858D968D23E333E343E95FE30E94AA
:1004F000672620E030E040E05FE30E94C5230E94D1
:10050000FA24F801718760870E94CD112DB73EB79C
:10051000265F3F4F0FB6F8943EBF0FBE2DBFBB20E6
:10052000B1F0C7010894E11CF11C0E94B7128C01C4
:100530000E945A1BC801B4010E94F71B0E940E1BA7
:10054000C401B601A10198010E94E3134ECF4F9B55
:100550004CCFC4010E941B13BB24B39411E0EE24C2
:10056000FF2444CF1092C50087E68093C40088E141
:100570008093C10086E08093C2000895FC0107C00B
:100580008091C00085FFFCCF31969093C60090818A
:100590009923B1F70895382F282F22952F702A30EC
:1005A00010F097E501C090E38091C00085FFFCCF7B
:1005B000920F9093C600232F2F702A3010F097E5EA
:1005C00001C090E38091C00085FFFCCF920F909313
:1005D000C6000895FC018091C00087FFFCCF809188
:1005E000C6008432C1F781938091C00087FFFCCFA1
:1005F0008091C6008A32B9F710820895982F8091B1
:10060000C00085FFFCCF9093C60008958091C00084
:1006100087FFFCCF8091C60008958091C00087FFBE
:10062000FCCF8091C6000895CF93DF93EC010E9428
:10063000AC12282F07C08091C00085FFFCCF219607
:100640009093C60098819A3211F09923A1F7809176
:10065000C00085FFFCCF8AE28093C600822F0E94F3
:10066000CB02E8E8F1E007C08091C00085FFFCCF35
:1006700031969093C60090819923B1F7DF91CF9185
:1006800008958EBD0DB407FEFDCF8EB50895982F49
:100690002C988FEF8EBD0DB407FEFDCF8EB5906404
:1006A0009EBD0DB407FEFDCF8EB57EBD0DB407FE19
:1006B000FDCF8EB56EBD0DB407FEFDCF8EB55EBD10
:1006C0000DB407FEFDCF8EB54EBD0DB407FEFDCFB8
:1006D0008EB585E98EBD0DB407FEFDCF8EB58FEFCB
:1006E0008EBD0DB407FEFDCF8EB508952FEF3FEF01
:1006F0009FEF07C09EBD0DB407FEFDCF8EB58F3FA7
:1007000021F421503040B1F78FEF08952FEF3FEFE4
:100710008FEF9FEF07C09EBD0DB407FEFDCF8EB5D6
:100720008E3F19F021503040B1F7089580E09FEFDF
:100730009EBD0DB407FEFDCF2EB58F5F8A30C1F789
:100740002C9A08950F931F93CF93DF938B019C01F5
:10075000EA0189E0000F111F221F331F8A95D1F78C
:1007600081E1B901A8010E9447032FEF8FEF9FEFAE
:100770003FEF07C03EBD0DB407FEFDCF2EB52E3FA7
:1007800091F00197B9F72E3F71F080E09FEF9EBD89
:100790000DB407FEFDCF2EB58F5F8A30C1F72C9ABE
:1007A0002FEF3FEF2AC020E030E09FEF9EBD0DB459
:1007B00007FEFDCF8EB588832F5F3F4F82E020304C
:1007C000380711F02196F2CF8FEF8EBD0DB407FEE2
:1007D000FDCF8EB58FEF8EBD0DB407FEFDCF8EB56C
:1007E00080E09FEF9EBD0DB407FEFDCF2EB58F5F5D
:1007F0008A30C1F72C9A20E030E0C901DF91CF9117
:100800001F910F9108950F931F93CF93DF938B0147
:100810009C01EA012C9899E0000F111F221F331F41
:100820009A95D1F788E1B901A8010E9447032FEFFB
:100830003FEF9FEF07C09EBD0DB407FEFDCF8EB505
:100840008E3F19F021503040B1F78EEF8EBD0DB4C0
:1008500007FEFDCF8EB520E030E089918EBD0DB44E
:1008600007FEFDCF8EB52F5F3F4F82E02030380767
:10087000A1F78FEF8EBD0DB407FEFDCF8EB58FEFC4
:100880008EBD0DB407FEFDCF8EB58FEF8EBD0DB4BE
:1008900007FEFDCF8EB5282F30E0C9018F71907013
:1008A0000597F9F42FEF3FEF9FEF9EBD0DB407FEC4
:1008B000FDCF8EB5882319F421503040B1F780E088
:1008C0009FEF9EBD0DB407FEFDCF4EB58F5F8A3002
:1008D000C1F72C9A232B19F020E030E002C02FEF53
:1008E0003FEFC901DF91CF911F910F9108951F93A1
:1008F00085B18F7585B92E9A84B1806A84B92C9A96
:10090000249A82E58CBD1DBC80E090E02FEF2EBDC7
:100910000DB407FEFDCF3EB501968A309105B9F7BB
:1009200080E040E050E060E070E00E9447038FEF1D
:100930009FEF3FEF07C03EBD0DB407FEFDCF2EB5C4
:100940002F3F19F40197B9F702C0213069F080E018
:100950009FEF9EBD0DB407FEFDCF2EB58F5F8A3091
:10096000C1F72C9A81E028C01FEF1EBD0DB407FE11
:10097000FDCF8EB5882341F081E040E050E060E09B
:1009800070E00E944703F1CF80E140E052E060E078
:1009900070E00E94470380E09FEF9EBD0DB407FE0C
:1009A000FDCF2EB58F5F8A30C1F72C9A8CB58C7F26
:1009B0008CBD81E08DBD80E01F910895CF93DF93C2
:1009C000EC01FB0183858C872081222321F0253EC9
:1009D00029F483E001C084E0898F0EC0282F30E025
:1009E000C9018F7090700F9711F481E0F5CF23FF4C
:1009F00002C082E0F1CF198E898D882361F520E055
:100A000030E0FE01E20FF31FDB01A20FB31F8C9158
:100A100080832F5F3F4F2B30310599F71B86FB01F9
:100A200084899589A0E0B0E0DC0199278827228D90
:100A3000338D40E050E0822B932BA42BB52B8D8778
:100A40009E87AF87B88B848D958DA68DB78D898B4A
:100A50009A8BAB8BBC8BDF91CF9108950895CF9388
:100A6000DF93EC01898D8823B9F44091F30550910F
:100A7000F40520E030E0FE01E20FF31FDA01A20FDF
:100A8000B31F90818C91981739F42F5F3F4F2B3013
:100A9000310589F781E004C083E08093D80580E0C8
:100AA000DF91CF91089520E0FC01818D8350823049
:100AB00008F421E0822F0895DC018C9180538A3064
:100AC00070F540E050E020E030E0FD01E40FF51F5C
:100AD000E0818E2F80538A30B8F4C90173E0880F0B
:100AE000991F7A95E1F7220F331F820F931F2E2F44
:100AF000332727FD309520533040280F391F4F5F93
:100B00005F4F4830510509F78091F5059091F60542
:100B10008217930724F43093F6052093F50580E0BF
:100B20000895A0E0B0E0E7E9F5E00C94CB276C0174
:100B3000C0E0D0E010C0F601EC0FFD1F80818E32C6
:100B400051F4C130D10569F4F60180818E3219F07B
:100B500081E090E007C0F601EC0FFD1F108111232A
:100B600031F4CE01FC01E256FA4F20E21DC0E12E25
:100B7000FF24E7FCF094C7010E94FE27892B31F483
:100B80001E3221F01E3711F08FE503C0C7010E940D
:100B90001228FE01E256FA4F80832196CB30D10510
:100BA00054F2DFCF219301968B309105DCF3F601EF
:100BB000EC0FFD1F80818E32F9F47F0106EA15E00B
:100BC000F70181818823C1F0C82FDD27C7FDD095AB
:100BD000CE010E94FE27892B11F48FE503C0CE01C0
:100BE0000E941228F80181938F010894E11CF11CE6
:100BF000F5E0093A1F0721F71092A9058EE995E063
:100C0000CDB7DEB7E8E00C94E727CF93DF930E94DF
:100C10000304EC01009759F000D08BE891E0EDB7A8
:100C2000FEB7928381830E94CD110F900F90CE0169
:100C3000DF91CF910895CF93DF930E94A203EC013F
:100C4000009759F000D084EA91E0EDB7FEB79283A7
:100C500081830E94CD110F900F90CE01DF91CF9133
:100C60000895EF92FF920F931F93CF93DF93EC01C0
:100C700060E070E080E090E04BEF55E00E941B06E2
:100C8000892B21F000D08DEB91E054C000D000D032
:100C90008BED91E0EDB7FEB7928381832196D483EB
:100CA000C38321970E94CD110F900F900F900F904A
:100CB0008091F9079091FA0785559A4A71F000D012
:100CC0008BEE91E0EDB7FEB7928381830E94CD1148
:100CD00022E030E00F900F90D4C0FE01A4E0EE0FB0
:100CE000FF1FAA95E1F7E754F84F84818B508230BB
:100CF00060F000D08BEF91E0EDB7FEB79283818377
:100D00000E94CD1123E030E0E5CF608571858285BA
:100D100093856093AA057093AB058093AC0590937F
:100D2000AD054BEF55E00E941B06892B61F000D00A
:100D30008DE092E0EDB7FEB7928381830E94CD11E2
:100D400021E030E0C7CF80910606909107068050E1
:100D5000924061F000D081E292E0EDB7FEB792835D
:100D600081830E94CD1124E030E0B4CF80910B0646
:100D7000823059F000D08AE392E0EDB7FEB792835B
:100D800081830E94CD110F900F908091F90790916F
:100D9000FA0785559A4A21F000D085E592E092CF76
:100DA000809108068093BE0520911F063091200691
:100DB00040912106509122062093BA053093BB053D
:100DC0004093BC055093BD05E0900906F0900A06DB
:100DD00000E010E08091AA059091AB05A091AC05D0
:100DE000B091AD05E80EF91E0A1F1B1FE092AE057B
:100DF000F092AF050093B0051093B10560910B061A
:100E000070E080E090E00E9459276E0D7F1D801FEA
:100E1000911F6093B2057093B3058093B4059093CE
:100E2000B5058091270690912806A0912906B091DA
:100E30002A068093B6059093B705A093B805B093A2
:100E4000B905E092010AF092020A0093030A109396
:100E5000040AC801B70141E058E00E941B068091D6
:100E6000B6059091B705A091B805B091B9058093EA
:100E7000E6059093E705A093E805B093E90520E027
:100E800030E0C901CDB7DEB7E6E00C94E927A0E079
:100E9000B0E0EDE4F7E00C94C927623071058105FC
:100EA000910518F07B018C0108C0E090B605F09028
:100EB000B7050091B8051091B9055701680187E0A1
:100EC000D694C794B794A7948A95D1F78091AE052C
:100ED0009091AF05A091B005B091B105A80EB91ED3
:100EE000CA1EDB1E76C08091010A9091020AA09171
:100EF000030AB091040A8A159B05AC05BD0571F083
:100F0000A092010AB092020AC092030AD092040A87
:100F1000C601B50141E058E00E941B06FE01EE0F3C
:100F2000FF1FEE0FFF1FEF5FF74FE080F1800281A0
:100F30001381108211821282138257016801B7E077
:100F4000D694C794B794A794BA95D1F78091AE057B
:100F50009091AF05A091B005B091B105A80EB91E52
:100F6000CA1EDB1E6091010A7091020A8091030A79
:100F70009091040A6A157B058C059D0571F4E114B6
:100F8000F1040105110549F028EFE2162FEFF206F2
:100F90002FEF02072FE01207E0F041E058E00E9437
:100FA00005066091BA057091BB058091BC059091D2
:100FB000BD052091010A3091020A4091030A509127
:100FC000040A620F731F841F951F41E058E00E94BE
:100FD0000506E701CF77D0700894E108F108010910
:100FE000110987EFE8168FEFF8068FEF08078FE0FB
:100FF000180708F478CFCDB7DEB7EAE00C94E52700
:10100000EF92FF920F931F937B018C0182E0E81611
:10101000F1040105110540F4E090B605F090B70524
:101020000091B8051091B905A801970167E05695A0
:101030004795379527956A95D1F78091AE059091A0
:10104000AF05A091B005B091B105280F391F4A1F17
:101050005B1F8091010A9091020AA091030AB0914E
:10106000040A82179307A407B50771F02093010AB9
:101070003093020A4093030A5093040ACA01B9014B
:1010800041E058E00E941B06F701EF77F070EE0F89
:10109000FF1FEE0FFF1FEF5FF74F608171818281AD
:1010A00093811F910F91FF90EF9008956F927F921F
:1010B0008F929F92AF92BF92CF92DF92EF92FF9268
:1010C0000F931F935B016C0139014A0182E0A8165E
:1010D000B104C104D10440F4A090B605B090B705A6
:1010E000C090B805D090B905C601B5010E940008AE
:1010F000162F072FF82EE92EF501EF77F070EE0F7F
:10110000FF1FEE0FFF1FEF5FF74F60827182828239
:1011100093826091010A7091020A8091030A909172
:10112000040A41E058E00E9405066091BA057091FA
:10113000BB058091BC059091BD052091010A3091BD
:10114000020A4091030A5091040A620F731F841F20
:10115000951F41E058E00E940506612F702F8F2DEA
:101160009E2D1F910F91FF90EF90DF90CF90BF9039
:10117000AF909F908F907F906F900895A0E0B0E027
:10118000E4ECF8E00C94C1275B016C01542E452E71
:1011900019016090B2057090B3058090B4059090ED
:1011A000B50582E0A816B104C104D10418F0C60147
:1011B000B50108C06091B6057091B7058091B8057A
:1011C0009091B9059F70625070408040904020918E
:1011D000BE0530E040E050E00E9459277B018C01C1
:1011E000E60CF71C081D191D8FEF9FEFAFEFBFE056
:1011F000E822F9220A231B23E092FB07F092FC0766
:101200000093FD071093FE07A092F705B092F80532
:10121000C092F905D092FA05252D342DC901EC01B3
:101220002091FB073091FC074091FD075091FE078C
:101230002E193F09400B510B8091BE0590E0A0E0B4
:10124000B0E0281739074A075B0708F449C0A092A5
:10125000F705B092F805C092F905D092FA05C601DB
:10126000B5010E9400085B016C016090B2057090AE
:10127000B3058090B4059090B50592E0A916B1042D
:10128000C104D10418F0C601B50108C06091B605CB
:101290007091B7058091B8059091B9059F70625023
:1012A0007040804090402091BE0530E040E050E02A
:1012B0000E9459277B018C01E60CF71C081D191DA3
:1012C0008FEF9FEFAFEFBFE0E822F9220A231B2345
:1012D000E092FB07F092FC070093FD071093FE07D6
:1012E00098EFA9169FEFB9069FEFC9069FE0D906B0
:1012F00038F56091FB077091FC078091FD07909194
:10130000FE074BEF55E00E941B068BEF95E0BE01F8
:10131000F10109958091FB079091FC07A091FD07D1
:10132000B091FE070196A11DB11D8093FB0790931C
:10133000FC07A093FD07B093FE07C050D24070CFCA
:10134000CDB7DEB7E2E10C94DD27ACE1B0E0EBEA2B
:10135000F9E00C94C1275B016C015C8F4B8F6090AE
:10136000B2057090B3058090B4059090B5056230D9
:1013700071058105910540F46091B6057091B7053E
:101380008091B8059091B9059F706250704080407F
:1013900090402091BE0530E040E050E00E94592787
:1013A0007B018C01E60CF71C081D191D8FEF9FEFC8
:1013B000AFEFBFE0E822F9220A231B23E092FB07EC
:1013C000F092FC070093FD071093FE07C801B701D8
:1013D0004BEF55E00E941B0645015601FBEFCF2E57
:1013E000F5E0DF2E1E010894211C311CC6018B5F25
:1013F0009540805092400CF478C02091FB073091CA
:10140000FC074091FD075091FE072F5F3F4F4F4F64
:101410005F4F2093FB073093FC074093FD075093E9
:10142000FE072E193F09400B510B8091BE0590E03D
:10143000A0E0B0E0281739074A075B07E8F1C501CB
:10144000B4010E9400084B015C014090B20550902D
:10145000B3056090B4057090B505623071058105E3
:10146000910540F46091B6057091B7058091B8057B
:101470009091B9059F7062507040804090402091DB
:10148000BE0530E040E050E00E9459277B018C010E
:10149000E40CF51C061D171D8FEF9FEFAFEFBFE0AB
:1014A000E822F9220A231B23E092FB07F092FC07B3
:1014B0000093FD071093FE0798EF89169FEF99069A
:1014C0009FEFA9069FE0B906A8F56091FB07709110
:1014D000FC078091FD079091FE074BEF55E00E94BD
:1014E0001B06EBEFCE2EE5E0DE2EC101B6010E9419
:1014F000DE04C101AB8DBC8DFD010995882391F0FF
:101500008FEB95E0B6010E94DE048092D4059092A4
:10151000D505A092D605B092D705D0920008C0920A
:10152000FF0708C08A8D843029F020E230E0C20E27
:10153000D31E5CCF6C96E2E10C94DD271092F60589
:101540001092F5056091E6057091E7058091E80538
:101550009091E9054CE555E00E94A5098091F505BB
:101560009091F60508950E9491059093F40580935B
:10157000F3056091E6057091E7058091E80590918B
:10158000E9054FE255E00E94A50990E08091D80559
:10159000882309F491E0892F08950E949105909382
:1015A000F4058093F3056091E6057091E70580915D
:1015B000E8059091E9054FE255E00E94A509809168
:1015C000D805882329F58091CB0584FD21C0609141
:1015D000CC057091CD058091CE059091CF05611518
:1015E00071058105910511F00E944707E091FF0701
:1015F000F091000885EE80836091FB077091FC07F5
:101600008091FD079091FE074BEF55E00E94050683
:1016100008950F931F938B010E9491059093F405F9
:101620008093F3056091E6057091E7058091E805E8
:101630009091E9054FE255E00E94A509C8010E947A
:101640009105DC018C91803201F18091D8058823CD
:10165000E1F44091FF075091000820E030E0FA01EA
:10166000E20FF31F8D9180832F5F3F4F2B303105A9
:10167000B1F76091FB077091FC078091FD07909195
:10168000FE074BEF55E00E9405061F910F9108954C
:101690000E9491059093F4058093F3056091E6050F
:1016A0007091E7058091E8059091E9054FE255E0DA
:1016B0000E94A5098091CB0584FF14C08091D805B4
:1016C000882381F48091CC059091CD05A091CE0521
:1016D000B091CF058093E6059093E705A093E805C8
:1016E000B093E9050895EF92FF920F931F93CF9364
:1016F000DF93EC01E090B205F090B3050091B405E2
:101700001091B5056C857D858E859F85623071054C
:101710008105910540F46091B6057091B7058091FF
:10172000B8059091B9059F7062507040804090401C
:101730002091BE0530E040E050E00E9459279B0117
:10174000AC012E0D3F1D401F511F5F706A817B81D0
:10175000882777FD8095982F620F731F841F951F30
:10176000AE014C5E5F4F0E9405066C857D858E85BF
:101770009F8528EF3FEF4FEF5FE00E945608CC5E59
:10178000DD4FD093F405C093F305C451D24068896E
:1017900079898A899B894FE255E00E94A509809149
:1017A000D805882329F5E091FF07F09100088C8186
:1017B0009D81AE81BF81848F958FA68FB78F8885DD
:1017C0009985AA85BB85CD01AA27BB27958B848BDC
:1017D00088859985938F828F6091FB077091FC07B4
:1017E0008091FD079091FE074BEF55E00E940506A2
:1017F000CDB7DEB7E6E00C94E927A0E0B0E0E3E087
:10180000FCE00C94C927EB010E9491059093F4052C
:101810008093F3056091E6057091E7058091E805F6
:101820009091E9054FE255E00E94A5098091D80505
:10183000882309F0C3C08091CB0584FDBFC0E09030
:10184000D005F090D1050091D2051091D305E11497
:10185000F1040105110509F4B1C04091F30550915F
:10186000F405DE01AC5EBD4F20E030E0FA01E20F8E
:10187000F31F80818D932F5F3F4F2B303105B1F7E0
:101880006091CC057091CD058091CE059091CF05EA
:10189000688779878A879B87A7012EE235E00E94B7
:1018A000BE082091D0053091D1054091D2055091CC
:1018B000D305DA01C9019170A070B0700097A1053D
:1018C000B10519F480E092E002C0C90191709983DA
:1018D00088838091BE05A82EBB24CC24DD24E09013
:1018E000D005F090D1050091D2051091D305C80123
:1018F000B701615070408040904039E096958795DF
:10190000779567953A95D1F7A60195010E949F2793
:101910007B836A83EC82FD820E831F832091F7050F
:101920003091F8054091F9055091FA052C873D87D3
:101930004E875F878091E6059091E705A091E805C5
:10194000B091E905888B998BAA8BBB8BE090B2058F
:10195000F090B3050091B4051091B5052230310522
:101960004105510518F0CA01B90108C06091B605DA
:101970007091B7058091B8059091B9059F7062503C
:10198000704080409040A60195010E9459279B011C
:10199000AC012E0D3F1D401F511F5F706A817B817E
:1019A000882777FD8095982F620F731F841F951FDE
:1019B0006496AE010E941B0681E001C080E0CDB7B5
:1019C000DEB7EAE00C94E527EF92FF920F931F93A6
:1019D0008091AE059091AF05A091B005B091B10591
:1019E0004BC0C801B70141E058E00E941B06E1E08E
:1019F000F8E020E030E080819181A281B3810097FE
:101A0000A105B10541F540E050E08091010A9091B7
:101A1000020AA091030AB091040AE090AE05F0908A
:101A2000AF050091B0051091B1058E199F09A00B6B
:101A3000B10B67E0880F991FAA1FBB1F6A95D1F7EA
:101A4000282B392B4A2B5B2BB901CA011F910F910F
:101A5000FF90EF9008952F5F3F4F3496203131056E
:101A600051F68091010A9091020AA091030AB09167
:101A7000040A0196A11DB11D8093010A9093020AE8
:101A8000A093030AB093040AE090010AF090020ABE
:101A90000091030A1091040A8091BA059091BB0548
:101AA000A091BC05B091BD052091AE053091AF0568
:101AB0004091B0055091B105820F931FA41FB51F2F
:101AC000E816F9060A071B0708F48BCF00D080E759
:101AD00092E0EDB7FEB7928381830E94CD110F9003
:101AE0000F90FFCFA0E0B0E0E8E7FDE00C94C52741
:101AF000EC013B014A0174E1A72EB12CA80EB91EDE
:101B0000CC24DD2485C088819981805092400CF4DA
:101B100063C0E090B205F090B3050091B405109158
:101B2000B5056C857D858E859F8562307105810543
:101B3000910540F46091B6057091B7058091B805A4
:101B40009091B9059F706250704080409040209104
:101B5000BE0530E040E050E00E9459279B01AC01F7
:101B60002E0D3F1D401F511F5F706A817B818827AA
:101B700077FD8095982F620F731F841F951FA50115
:101B80000E9405062A813B812F5F3F4F3B832A83BA
:101B90008091BE0590E028173907E4F01B821A8275
:101BA000EC84FD840E851F850E94E40C9B01AC0132
:101BB0006C877D878E879F87C801B7010E94560872
:101BC0006C857D858E859F8528EF3FEF4FEF5FE029
:101BD0000E9456081982188288819981DE01A80F17
:101BE000B91FF301EC0DFD1D2081FD01248B019631
:101BF000998388838C819D81AE81BF810196A11DCF
:101C0000B11D8C839D83AE83BF830894C11CD11CFE
:101C1000C814D9040CF477CFCDB7DEB7EEE00C943E
:101C2000E127CF93DF93EB010E9491059093F40598
:101C30008093F3056091E6057091E7058091E805D2
:101C40009091E9054FE255E00E94A5098091D805E1
:101C5000882309F049C08091CB0584FD45C080915F
:101C6000D0059091D105A091D205B091D3050097F0
:101C7000A105B105C9F54091F3055091F405DE01C8
:101C8000AC5EBD4F20E030E0FA01E20FF31F80812F
:101C90008D932F5F3F4F2B303105B1F7198218829A
:101CA0001B821A821C821D821E821F820E94E40CEB
:101CB000688779878A879B876C877D878E879F87D0
:101CC0002091E6053091E7054091E8055091E9053E
:101CD000288B398B4A8B5B8B28EF3FEF4FEF5FE010
:101CE0000E94560881E001C080E0DF91CF91089505
:101CF000A1E0B0E0EEE7FEE00C94C1270E94910560
:101D00008C016091E6057091E7058091E80590915E
:101D1000E90543E555E00E94A5096090D40570905F
:101D2000D5058090D6059090D7052090B2053090CB
:101D3000B3054090B4055090B50582E06816710473
:101D40008104910468F0EFEFAE2EEFEFBE2EEFEFBF
:101D5000CE2EEFE0DE2EA620B720C820D92010C05E
:101D6000A090B605B090B705C090B805D090B90561
:101D70008FEF9FEFAFEFBFE0A822B922CA22DB228C
:101D80008EEF9FEFAFEFBFEFA80EB91ECA1EDB1E8E
:101D90009091BE059983A091FF07B091000820E0C3
:101DA00030E0AD01420F531FF80181918F01FA011C
:101DB00080832F5F3F4F2B30310599F7FD01148E43
:101DC000158E168E178E13868FEF9FE0958B848B62
:101DD0008FEF9FEF938F828FB096F0930008E09380
:101DE000FF078091D805843009F098C0EB5FF5407B
:101DF000E050F2400CF48DC06091FB077091FC073D
:101E00008091FD079091FE074BEF55E00E9405067B
:101E1000E090FB07F090FC070091FD071091FE0792
:101E20000894E11CF11C011D111DE092FB07F092CA
:101E3000FC070093FD071093FE079981292F30E0DE
:101E400040E050E0C601B5010E945927620D731DA4
:101E5000841D951D9F70E61AF70A080B190B8091D7
:101E6000BE0590E0A0E0B0E0E816F9060A071B07FF
:101E700018F48401730112C00E94E40C7B018C01F0
:101E8000C401B301A80197010E945608C801B70117
:101E900028EF3FEF4FEF5FE00E945608A090B20599
:101EA000B090B305C090B405D090B505A2E0EA1695
:101EB000F1040105110518F0C801B70108C06091CF
:101EC000B6057091B7058091B8059091B9059F70DE
:101ED00062507040804090402091BE0530E040E06C
:101EE00050E00E9459276A0D7B1D8C1D9D1D9F701F
:101EF0006093FB077093FC078093FD079093FE07A8
:101F00000BEF15E0A8010E941B0610930008009338
:101F1000FF07E091FF07F091000810826091FB0736
:101F20007091FC078091FD079091FE074BEF55E003
:101F30000E9405062196E2E10C94DD27A0E0B0E0C6
:101F4000E4EAFFE00C94C1277C010E94B30A8823D5
:101F500011F08FEFD4C0C7010E94780EC7010E9414
:101F600091059093F4058093F3056091E6057091D7
:101F7000E7058091E8059091E9054FE255E00E9460
:101F8000A5098091D805882311F08EEFB8C00E9472
:101F9000E40C6B017C0128EF3FEF4FEF5FE00E9404
:101FA0005608E091FF07F0910008C701AA27BB2758
:101FB0001C01958B848BE601D38EC28E80E18387D2
:101FC0006091FB077091FC078091FD079091FE07DF
:101FD0004BEF55E00E9405068090E6059090E705DE
:101FE000A090E805B090E9054090B2055090B30587
:101FF0006090B4057090B50582E0C816D104E10484
:10200000F10418F0C701B60108C06091B6057091DF
:10201000B7058091B8059091B9059F7062507040E6
:10202000804090402091BE0530E040E050E00E94AA
:102030005927640D751D861D971D9F706093FB07C2
:102040007093FC078093FD079093FE070BEF15E05C
:102050001092FB05A8010E940506C092E605D092E9
:10206000E705E092E805F092E90583E892E00E9436
:10207000780E109300080093FF073092100620920C
:102080000F06D0931606C0931506B0E1FB2EF09212
:1020900006066091FB077091FC078091FD07909107
:1020A000FE07A8010E94050685E892E00E94780ECE
:1020B000F801B096C501AA27BB27958B848B938E18
:1020C000828EF09226068BE396E090930008809330
:1020D000FF0710923B066091FB077091FC0780910F
:1020E000FD079091FE07A8010E9405068092E60573
:1020F0009092E705A092E805B092E90580E0CDB79F
:10210000DEB7E2E10C94DD279FEF97B95C985D980C
:1021100012B8E0EDF7E03197F1F75E9A000082B96E
:1021200080E197E2FC013197F1F75E980197F1F7B2
:1021300008959FEF97B95C9A5D9882B95E9A80E4A2
:102140009FE10197F1F75E9880ED97E00197F1F735
:1021500008958295880F880F807C80680E94841083
:1021600008951F93182F0E94A91020E030E0FFEF80
:10217000E0E260E47FE140ED57E0F7B95C9A5D98FA
:10218000E2B95E9ACB010197F1F75E98CA01019717
:10219000F1F72F5F3F4F2031310579F7812F0E94F2
:1021A000A9101F910895DC0120E030E09FEF60E46A
:1021B0007FE140ED57E00FC0119697B95C9A5D98AA
:1021C00082B95E9AFB013197F1F75E98FA01319777
:1021D000F1F72F5F3F4F8C91882371F7C901089564
:1021E000AF92BF92CF92DF92EF92FF921F93DF9355
:1021F000CF93CDB7DEB72C970FB6F894DEBF0FBEE6
:10220000CDBF9C0197FD04C096E0C92ED12C08C01B
:102210008DE28E83309521953F4F87E0C82ED12CDB
:10222000CC0EDD1EEE24FF245E010894A11CB11C1F
:1022300012C0F501EE0DFF1DC9016AE070E00E94B9
:102240008C278083C9016AE070E00E948C279B0183
:102250000894E11CF11C1E2D2115310551F7EE20CB
:1022600041F31150812F992787FD90951F5FFE0143
:102270003196E80FF91FD6019E2D91508081805D27
:102280008D9331979923C9F7C10ED11CF6011082A5
:10229000CE0106960E94D310212F332727FD3095BB
:1022A000C9012C960FB6F894DEBF0FBECDBFCF91FB
:1022B000DF911F91FF90EF90DF90CF90BF90AF9094
:1022C0000895282F82958F708A3010F097E501C00D
:1022D00090E3980F8FEF87B95C9A5D9892B95E9AF8
:1022E00080E49FE10197F1F75E9880ED97E0019718
:1022F000F1F7822F8F708A3010F097E501C090E3DC
:10230000980F8FEF87B95C9A5D9892B95E9A80E4D6
:102310009FE10197F1F75E9880ED97E00197F1F763
:1023200008950F931F9380E69AEE0197F1F780E3EB
:102330000E94841000EE1EE2C8010197F1F780E3CD
:102340000E948410C8010197F1F780E30E94841075
:10235000C8010197F1F78CE30E94841088E00E9485
:10236000841086E00E9484108CE00E94841081E03A
:102370000E9484101F910F91089580E29EE40197BE
:10238000F1F78FEF81B98AB180678AB912B85C988A
:102390005D985E980E94911108953F924F925F92CE
:1023A0006F927F928F929F92AF92BF92CF92DF9265
:1023B000EF92FF920F93DF93CF9300D000D0CDB771
:1023C000DEB757E1C52ED12CCC0EDD1EF601E19013
:1023D000F1906F0180E00E94A910552400E0442490
:1023E0004A9440E2342E30E4632E3FE1732E20ED18
:1023F000822E27E0922E7FC08A3021F0853209F0AC
:102400006AC002C0202F5FC057010894A11CB11CF4
:10241000F70181818436C1F0853634F4882309F4CC
:1024200067C08336A1F51EC0833789F5C6010296C1
:102430009C838B83F601808191810E94D310080FC9
:102440007501CB80DC8054C0C60102969A838983D3
:10245000F601808191810E94F010080F7501C980FA
:10246000DA8046C096012E5F3F4FF601808147B863
:102470005C9A5D9882B95E9AC3010197F1F75E9804
:10248000C4010197F1F70F5F7501690131C047B8C9
:102490005C9A5D9882B95E9AC3010197F1F75E98E4
:1024A000C4010197F1F70F5F750122C047B85C9A2C
:1024B0005D9832B85E9AC3010197F1F75E98C40146
:1024C0000197F1F72F5F20318CF35394852D0E94F3
:1024D000A91000E00DC047B85C9A5D9882B95E9A79
:1024E000C3010197F1F75E98C4010197F1F70F5FFF
:1024F0000894E11CF11CF7018081882309F07CCF4E
:10250000202FEFEF30E260E47FE140ED57E00DC0B7
:10251000E7B95C9A5D9832B95E9ACB010197F1F701
:102520005E98CA010197F1F72F5F20318CF30F906D
:102530000F900F900F90CF91DF910F91FF90EF9040
:10254000DF90CF90BF90AF909F908F907F906F90D3
:102550005F904F903F900895FC01818101C08927D1
:1025600092819A3219F031969923C9F70895CF9341
:10257000DF939C018EE28093100A8AE68093110A11
:1025800080E78093120A87E68093130A1092140A58
:10259000CAE0D0E0FE01EB5FF54FC9016AE070E0F0
:1025A0000E947827805D8083C9016AE070E00E9404
:1025B00078279B0121976115710521F08FEFCF3F9F
:1025C000D80741F79E012A5F354FC901DF91CF91AE
:1025D000089588E892E00E9414038EE992E00E9438
:1025E000140384EB92E00E9414038AEC92E00E94B0
:1025F000140380EE92E00E94140386EF92E00E94A2
:10260000140308950F931F938C018CE093E0B8019D
:102610000E94FD0BC80166E674E042E150E00E94B2
:10262000720DC8010E94730B84E193E00E94480B75
:102630001F910F910895ADE0B0E0E1E2F3E10C9459
:10264000CB277C010E949E0A8C010F5F1F4F8DB724
:102650009EB708970FB6F8949EBF0FBE8DBFADB75B
:10266000BEB711966E010894C11CD11CEDB7FEB720
:10267000D282C1828DE090E0FD019383828387E165
:1026800093E095838483178306830E94CF210F9064
:102690000F900F900F908AE193E0EDB7FEB7928311
:1026A0008183148303830E94CD110F900F900F90AC
:1026B0000F90C6010E949E0F882361F000D08FE228
:1026C00093E0EDB7FEB7928381830E94CD110F9006
:1026D0000F90FFCFC6010E94480B8CE093E00E9450
:1026E000CD0A8CE093E00E94780E8CE093E0B70175
:1026F0000E94110EC70169EE73E04CE750E00E94A2
:10270000720DC7010E94730B2D96E8E00C94E72729
:102710006F927F928F929F92AF92BF92CF92DF92F1
:10272000EF92FF920F931F935B016C01142F20E037
:1027300030E048EC52E40E9492240E942B253B0199
:102740004C01173569F0133559F00F2EF0E0EF2EDC
:10275000F0E0FF2EF0E80F2FFFE31F2FF02D0AC04F
:102760000F2EF0E0EF2EF0E0FF2EF0E80F2FFFEB42
:102770001F2FF02DC401B30120E030E048EC52ECF3
:102780000E9467269B01AC01C601B5010E94C523CA
:1027900020E030E040E752E40E949224A40193013B
:1027A0000E94C523A80197010E9467261F910F91DF
:1027B000FF90EF90DF90CF90BF90AF909F908F9061
:1027C0007F906F900895A0E4B0E0E9EEF3E10C94FF
:1027D000C3273C016B015A01922E832E8CE093E0BB
:1027E000B3010E94FD0BC30169E774E042E250E0CF
:1027F0000E94720D2DB73EB72A5030400FB6F894A4
:102800003EBF0FBE2DBF2F5F3F4F7E010894E11CDE
:10281000F11CEDB7FEB7F282E18280E4482E512C24
:10282000F901538242828AE493E095838483F6011E
:10283000838D948DA58DB68DF90186839783A087AE
:10284000B1870E94CF21F70101900020E9F731976D
:10285000EE19FF092DB73EB7265F3F4F0FB6F8942C
:102860003EBF0FBE2DBFC301B701AF010E94720D65
:102870008DB79EB708970FB6F8949EBF0FBE8DBF59
:102880000DB71EB70F5F1F4FEDB7FEB7F282E182A3
:10289000F8015382428281E693E095838483F501B7
:1028A00060817181828193810E94FA24F80177838B
:1028B00066830E94CF21F70101900020E9F731974C
:1028C000EE19FF092DB73EB7285F3F4F0FB6F894BA
:1028D0003EBF0FBE2DBFC301B701AF010E94720DF5
:1028E0008DB79EB708970FB6F8949EBF0FBE8DBFE9
:1028F0000DB71EB70F5F1F4FEDB7FEB7F282E18233
:10290000F801538242828DE893E095838483F50138
:1029100064817581868197810E94FA24F80177830A
:1029200066830E94CF21F70101900020E9F73197DB
:10293000EE19FF092DB73EB7285F3F4F0FB6F89449
:102940003EBF0FBE2DBFC301B701AF010E94720D84
:102950008DB79EB708970FB6F8949EBF0FBE8DBF78
:102960000DB71EB70F5F1F4FEDB7FEB7F282E182C2
:10297000F801538242828AEA93E095838483F501C9
:1029800060857185828593850E94FA24F80177839A
:1029900066830E94CF21F70101900020E9F731976B
:1029A000EE19FF092DB73EB7285F3F4F0FB6F894D9
:1029B0003EBF0FBE2DBFC301B701AF010E94720D14
:1029C000C3016AEF74E04AE050E00E94720DE92D05
:1029D000F82DDF010D900020E9F71197AE1BBF0B1A
:1029E000C301692D782DAD010E94720DC30165E010
:1029F00075E04EE050E00E94720DC3016CE974E096
:102A000048E150E00E94720D8DB79EB74E970FB609
:102A1000F8949EBF0FBE8DBFADB7BEB71196EDB790
:102A2000FEB7F282E182FD01538242828DEB93E098
:102A300095838483F60185A1992787FD9095FD01F3
:102A400097838683F60186A1992787FD9095FD01DE
:102A500091878087F60183A1992787FD9095FD01D5
:102A600093878287F60184A1992787FD9095FD01C0
:102A700095878487F60187A1992787FD9095FD01A9
:102A800097878687F60180A5992787FD9095FD0198
:102A9000918B808BF6018081992787FD9095FD01B0
:102AA000938B828BF6018181992787FD9095FD019B
:102AB000958B848BF6018281992787FD9095FD0186
:102AC000978B868BF6018381992787FD9095FD0171
:102AD000918F808FF6018481992787FD9095FD0164
:102AE000938F828FF6018581992787FD9095FD014F
:102AF000958F848F0E94CF21F70101900020E9F784
:102B00003197EE19FF092DB73EB7225E3F4F0FB642
:102B1000F8943EBF0FBE2DBFC301B701AF010E94A5
:102B2000720DC30165EB74E04DE150E00E94720D3F
:102B3000F60166897789808D918D428D0E94881378
:102B40004B015C01F6016189728983899489458909
:102B50000E9488132DB73EB72E5030400FB6F89420
:102B60003EBF0FBE2DBFADB7BEB71196EDB7FEB7D6
:102B7000F282E182FD01538242822FED33E0358300
:102B8000248386829782A086B18662877387848732
:102B900095870E94CF21F70101900020E9F7319736
:102BA000EE19FF092DB73EB7225F3F4F0FB6F894DD
:102BB0003EBF0FBE2DBFC301B701AF010E94720D12
:102BC000C30163ED74E046E250E00E94720DC30160
:102BD0000E94730BC05CDF4FE0E10C94DF27AFE491
:102BE000B0E0E5EFF5E10C94C1278C017B01609624
:102BF0005FAF4EAF6097FC016189728983899489C8
:102C000045890E9488133B014C01F8016689778948
:102C1000808D918D428D0E9488135B016C01F701BC
:102C2000618972898389948945890E9488131B016F
:102C30002C01F70166897789808D918D428D0E94E4
:102C40008813A60195010E94C4232BED3FE049E4BF
:102C500050E40E94672620E030E044E353E40E9401
:102C600092246EA37FA388A799A7C401B3012BED7B
:102C70003FE049E450E40E94672620E030E044E36E
:102C800053E40E9492240E94212725E434E24FE776
:102C90005FE30E9467260E9463247B018C010E94EF
:102CA000CA266AA37BA38CA39DA3C801B7010E9477
:102CB0008F246E8F7F8F88A399A3C201B1012BED62
:102CC0003FE049E450E40E94672620E030E044E31E
:102CD00053E40E9492240E94212725E434E24FE726
:102CE0005FE30E9467260E9463247B018C010E949F
:102CF000CA265B016C01C801B7010E948F246A8F4C
:102D00007B8F8C8F9D8F6E8D7F8D88A199A1A60161
:102D100095010E94672626966CAF7DAF8EAF9FAF60
:102D200026976AA17BA18CA19DA12A8D3B8D4C8DFC
:102D30005D8D0E94672622966CAF7DAF8EAF9FAFF0
:102D400022976AA17BA18CA19DA1A60195010E9459
:102D500067266AAF7BAF8CAF9DAF6E8D7F8D88A1EC
:102D600099A12A8D3B8D4C8D5D8D0E9467266EAB9F
:102D70007FAB88AF99AF6AA17BA18CA19DA120E018
:102D800030E040E050EC0E946726A60195010E94C9
:102D900067266AAB7BAB8CAB9DAB8EA19FA1A8A530
:102DA000B9A58E8B9F8BA88FB98F1D829D819F5F48
:102DB0009D836E897F89888D998D0E94CA261B010B
:102DC0002C016A8D7B8D8C8D9D8DA20191010E94BD
:102DD00067265B016C016E897F89888D998D0E94C1
:102DE0008F243B014C0122966CAD7DAD8EAD9FAD25
:102DF0002297A40193010E9467269B01AC012696AD
:102E00006CAD7DAD8EAD9FAD26970E94C4237B0136
:102E10008C01C601B501A60195010E9467265B01E0
:102E20006C01C801B701A80197010E9467269B01A8
:102E3000AC01C601B5010E94C5230E94D4266E874D
:102E40007F87888B998B6EA97FA988AD99ADA401E6
:102E500093010E9467269B01AC016AAD7BAD8CADEE
:102E60009DAD0E94C5236A877B878C879D876E8571
:102E70007F85888999892A853B854C855D850E9457
:102E800038246A8B7B8B8C8B9D8B6EA97FA988AD38
:102E900099ADA20191010E9467262E853F85488940
:102EA00059890E9492245B016C01A60195010E9440
:102EB00067269B01AC0160E070E080E89FE30E9420
:102EC000C4231B012C016AA97BA98CA99DA9A2017D
:102ED00091010E9492249B01AC016A857B858C85BF
:102EE0009D850E94C5236E837F8388879987C20151
:102EF000B10124ED3AEB4BE559E30E9467267B01D3
:102F00008C01C201B10120E030E040E450EC0E94AD
:102F1000672620E030E040E850E40E94C52324ED1D
:102F20003AEB4BE55BE30E94672620E030E040E8A7
:102F300050E40E94C5239B01AC01C801B7010E9467
:102F400067267B018C016E817F81888599859B0135
:102F5000AC010E9467266EA77FA788AB99AB9B0147
:102F6000AC010E94C52320E030E040E85FE30E940E
:102F7000C4236AA77BA78CA79DA760E070E080E8C8
:102F80009FE3A80197010E94C42324ED3AEB4BE58F
:102F90005BE30E946726A60195010E9467263B011C
:102FA0004C01C801B7012E853F85488959890E9487
:102FB00067265B016C01C801B7012A853B854C85FA
:102FC0005D850E9467262AA53BA54CA55DA50E94AC
:102FD00067269B01AC016E817F81888599850E945F
:102FE000C5239B01AC01C601B5010E9467269B0168
:102FF000AC016A897B898C899D890E94C5239B01CC
:10300000AC01C401B3010E9467269B01AC016EA113
:103010007FA188A599A50E94C52369837A838B83A4
:103020009C832E893F89488D598D0E94C4232CECA6
:103030003CEB4CE85BE20E945C26181694F06E892B
:103040007F89888D998D29813A814B815C810E948D
:10305000C4232CEC3CEB4CE85BE20E945C26181687
:1030600064F4AD81A03449F089819A81AB81BC813F
:103070008E8B9F8BA88FB98F99CEC201B10120E0B2
:1030800030EA4DE752E50E9467262AE231E043E14B
:1030900056E50E9492247B018C0120E030E040E85C
:1030A0005AE30E9467265B016C01C801B70120E06A
:1030B00030E04CE352EC0E94672620E030E044E927
:1030C00052E40E94C5239B01AC01C801B7010E94D4
:1030D000672620E030E040E053E40E94C4239B01D7
:1030E000AC01C801B7010E94672620E030E040E84B
:1030F00053E40E94C5239B01AC01C601B5010E94A7
:1031000067265B016C01C801B70120E030E040E8B0
:1031100058E30E9467263B014C01C801B70120E03B
:1031200030E04FE253EC0E94672620E030E040EAB6
:1031300053E40E94C5239B01AC01C801B7010E9462
:10314000672620E030E040E454E40E94C4239B0161
:10315000AC01C801B7010E94672620E030E040E8DA
:1031600055E40E94C5239B01AC01C401B3010E9438
:10317000672620E030E040E85FE30E94C52321E2BB
:103180003EEF41EC5AE40E9467262A966CAF7DAF71
:103190008EAF9FAF2A97C601B5012E853F8548891E
:1031A00059890E9467262E966CAF7DAF8EAF9FAF78
:1031B0002E97C601B50120E030E040E85EE30E94B2
:1031C00067261B012C016A857B858C859D852AA538
:1031D0003BA54CA55DA50E9467263B014C01C6019D
:1031E000B50120E030E040EC50EC0E9492242E81AA
:1031F0003F81488559850E9467267B018C016E8539
:103200007F85888999899B01AC010E94672620E00F
:1032100030E040E850E40E94672620E030E040E4DF
:1032200050E40E94C4239B01AC01C801B7010E9475
:1032300067267B018C016EA57FA588A999A920E04E
:1032400030E040E850E40E94672620E030E040E4AF
:1032500050E40E94C4239B01AC01C801B7010E9445
:1032600067269B01AC01C401B3010E94C5239B01E9
:10327000AC01C201B1010E9467269B01AC016E81C5
:103280007F81888599850E94C5239B01AC012E967C
:103290006CAD7DAD8EAD9FAD2E970E9467269B01D4
:1032A000AC016A897B898C899D890E94C4239B011A
:1032B000AC012A966CAD7DAD8EAD9FAD2A970E9474
:1032C00067266096AEADBFAD60976D937D938D938D
:1032D0009C93139769817A818B819C810E94CA2675
:1032E0005B016C0169817A818B819C810E948F24B2
:1032F0003B014C016A8D7B8D8C8D9D8DA6019501C6
:103300000E9467267B018C0122966CAD7DAD8EAD4F
:103310009FAD2297A40193010E9467269B01AC01F7
:1033200026966CAD7DAD8EAD9FAD26970E94C423D1
:103330009B01AC01C801B7010E94382420E030E0B5
:1033400044E353E40E9467262BED3FE049E450E458
:103350000E9492241B012C016096EEADFFAD609798
:1033600064837583868397836E8D7F8D88A199A1F1
:10337000A60195010E9467265B016C016AA17BA1F1
:103380008CA19DA190582A8D3B8D4C8D5D8D0E9406
:1033900067267B018C0126966CAD7DAD8EAD9FAD11
:1033A0002697A40193010E9467269B01AC01C801E6
:1033B000B7010E94C5239B01AC01C601B5010E9463
:1033C000382420E030E044E353E40E9467262BEDEC
:1033D0003FE049E450E40E9492246096EEADFFADD8
:1033E000609760877187828793878D81808BC20108
:1033F000B10120E030E040E050E00E948B248823BF
:1034000084F4C201B10120E030E044EB53E40E94B7
:10341000C5236096EEADFFAD6097648375838683A8
:1034200097836096EEADFFAD6097E084F1840285EE
:103430001385C801B70120E030E040E050E00E9471
:103440008B24882384F4C801B70120E030E044EBEA
:1034500053E40E94C5236096EEADFFAD6097608790
:1034600071878287938780E090E0C15BDF4FE2E164
:103470000C94DD27A0E1B0E0E0E4FAE10C94C3276E
:103480003C018B012B0193E2892E912C860E971E15
:1034900080E090E0CC24DD247E010894E11CF11C46
:1034A0005AC0F701EA0FFB1F208311965D01A80E99
:1034B000B91EFA012191AF012C3299F7AE0DBF1D53
:1034C0001C92F601EA30F10520F4E25CFF4F0C9407
:1034D000F82720E030E047C08A818734B9F141C045
:1034E000C20131C08981F801808B30C0C7010E94C0
:1034F000A920F801618B728B838B948B27C0898103
:10350000F801858B23C0C7010E94A920F801668BB2
:10351000778B808F918F1AC08981F801828F16C0B6
:10352000C7010E94A920F801638F748F858F968F41
:103530000DC0C7010E94A920F801678F70A381A365
:1035400092A304C0C401B7010E949021C501019655
:103550000894C11CD11CA301480F591FA0E0B0E082
:10356000A5CF2FEF3FEFC9016096E0E10C94DF2774
:10357000982F8091C80085FFFCCF9093CE000895CE
:103580008091970A2091980A30E090E0821B91097F
:1035900006970CF031E0832F0895AC016091980AF2
:1035A00020E030E00DC09091980A8091970A98171A
:1035B000D1F38091980A8F5F8093980A2F5F3F4FD5
:1035C0002417350784F3862F08950F93982F809141
:1035D000C80085FFFCCF8AEA8093CE008091C800A6
:1035E00085FFFCCF9093CE008091C80085FFFCCF73
:1035F0006093CE008091C80085FFFCCF4093CE0041
:103600008091C80085FFFCCF2093CE008091C80038
:1036100085FFFCCF0093CE000F9108950F9389E0B2
:1036200060E040E020E000E00E94E51A0F9108957C
:103630001F920F920FB60F9211248F939F93EF93C7
:10364000FF938091970A9091CE00E5E1FAE0E80FB0
:10365000F11D90838F5F8093970AFF91EF919F9167
:103660008F910F900FBE0F901F901895CF93DF93FF
:10367000EC0181E00E94A91020E030E09091980ACE
:103680008091970A9817D1F38091980AE82FF0E07B
:10369000EB5EF54F9081FE01E20FF31F90838F5F89
:1036A0008093980A2F5F3F4F2630310539F7DF911D
:1036B000CF910895CF92DF92EF92FF920F93DF9315
:1036C000CF9300D000D000D0CDB7DEB71092CD00A0
:1036D00082E28093CC0086E08093CA0088E98093E0
:1036E000C90078941092980A1092970A00D084E149
:1036F00095E0EDB7FEB7928381830E94CD119DE3E3
:10370000E92EF12C0F900F9088ECC82ED12C8DE073
:1037100060E040E020E000E00E94E51A84EF91E0E4
:10372000F6013197F1F70197D9F78091970A209127
:10373000980A90E0821B910906970CF450C0EF287C
:1037400061F400D085E295E0EDB7FEB79283818306
:103750000E94CD110F900F90FFCF7E010894E11CC5
:10376000F11CC7010E94361BC7010E94361B8A81CB
:103770008D3061F000D080E495E0EDB7FEB7928324
:1037800081830E94CD110F900F90FFCF8EE06DE0EE
:1037900040E020E000E00E94E51A81E060E047E0C0
:1037A00023E007E00E94E51AC7010E94361B86E06D
:1037B00068E040E820E000E00E94E51AC7010E94AE
:1037C000361B26960FB6F894DEBF0FBECDBFCF9145
:1037D000DF910F91FF90EF90DF90CF9008950894C4
:1037E000E108F108E114F10409F091CFAACFA6E0B5
:1037F000B0E0EDEFFBE10C94C1276C014B0100D070
:103800008BE595E0EDB7FEB7928381830E94CD11E1
:103810008091970A8093980A0F900F9085E060E05E
:1038200040E020E000E00E94E51ACE0101960E94EF
:10383000361B84EF91E028EC30E0F9013197F1F785
:103840000197D9F784E061E040E020E000E00E94C9
:10385000E51A8E010F5F1F4FC8010E94361BC80179
:103860000E94361BED80FF2400E010E0102F0F2D8A
:10387000FE2CEE248E8190E0A0E0B0E0DC019927E0
:103880008827E82AF92A0A2B1B2B8C8190E0A0E0DC
:10389000B0E0E82AF92A0A2B1B2BC801B7012AE756
:1038A00030E040E050E00E949F273901290144E0C8
:1038B000569447944A95E1F7C6010E94CD0AC60185
:1038C0000E94780EC601B4010E94110E00D000D0F3
:1038D000ADB7BEB7119689E695E0EDB7FEB7928316
:1038E00081833AE016950795F794E7943A95D1F7D6
:1038F000FD01F382E2820E94CD110F900F900F9094
:103900000F9081E00E94A910EE24FF2420E2222ED5
:103910002EE4322E59C0C1010197F1F7E114F104F0
:1039200049F0C701B2010E947827892B19F48DE371
:103930000E9499101092970A8091970A8093980A92
:103940008EE060E040E02E2D0F2D0E94E51A809160
:10395000980A20E030E09091980A8091970A981791
:10396000D1F38091980A8F5F8093980A2F5F3F4F21
:103970002038310581F78091150A2091160AD22E40
:10398000CC2490E08C299D294091170A2091180A97
:103990008E159F0561F000D087E795E0EDB7FEB783
:1039A000928381830E94CD110F900F90FFCFB22E92
:1039B000AA2450E04A295B29C40169E17AE00E9407
:1039C000720D0894E11CF11CE614F70408F4A3CF6F
:1039D0008EE060E040E020EF00EF0E94E51AC401B5
:1039E0006BE975E042E050E00E94720DC4010E9454
:1039F000730B00D08CE895E0EDB7FEB7928381831E
:103A00000E94CD1120ED37E00F900F9048EC50E070
:103A1000CA010197F1F721503040D1F72696E2E133
:103A20000C94DD27AEE0B0E0E8E1FDE10C94C127A5
:103A30004C012B018A01FC0117821682838181FDD2
:103A400005C08FEF9FEF81C30D851E85F401338183
:103A5000F20133FD859133FF81912F01882309F411
:103A60006DC3853239F433FD859133FF81912F0188
:103A7000853239F4B40199270E94A2211E870D874F
:103A8000E3CF982FBB24662477244AE0FFE1FB159F
:103A9000D0F09B3269F09C3228F4903259F0933286
:103AA00091F40EC09D3249F0903369F421E026C0B4
:103AB00052E0B52A84E0B82A2AC098E0B92A27C083
:103AC000E0E1BE2A24C0B7FC2DC0292F20532A30A4
:103AD00080F4B6FE06C0749EC0011124722E780ECA
:103AE00016C0649EC0011124622E680EF0E2BF2A47
:103AF0000EC09E3229F4B6FC21C320E4B22A07C0CE
:103B00009C3619F450E8B52A02C0983659F4F201EF
:103B100033FD959133FF91912F01992309F0B6CF91
:103B200020E042C2292F892F8554833020F48B2D29
:103B30008061205E07C0892F8556833008F091C1CF
:103B40008B2D8F7E86FD02C076E0772E6FE3F62EFA
:103B5000F822253619F4F0E4FF2A07C0263619F4B6
:103B600020E8F22A02C071107A94F7FE0AC03BE303
:103B7000371518F44CE34C870DC0572D5F5F5C87F9
:103B800009C087E0871518F0272D1C8604C01C8605
:103B900057E0752E27E0F8013496FE87ED87F8018F
:103BA00060817181828193810C85AE014F5F5F4F8F
:103BB0000E94AD206C010981202E332420FE04C018
:103BC00023FC02C01DE20BC08F2D992781FF02C08C
:103BD0001BE205C082FF02C010E201C010E0C1017B
:103BE0008C709070892B79F1112311F483E001C05E
:103BF00084E0861510F066240AC0681AF3FC07C03A
:103C0000B40180E290E00E94A2216A94C9F71123D6
:103C100029F0B401812F99270E94A22123FE03C01D
:103C20000EEF10E00BC002E011E008C0F4FC80527F
:103C3000B40199270E94A2210F5F1F4FF8018491C0
:103C40008823A1F778C2F7FE16C0FC85FC0DFC871F
:103C500024FE05C08A81813311F4F150FC872C8544
:103C600012161CF031E03C872BC04C85493040F1E6
:103C700058E05C8725C0F6FC65C2872D99278C1516
:103C80009D054CF08CEFC8168FEFD80624F090E815
:103C9000F92A01C07A94772031F0FE01E70DF11D79
:103CA00082818033B9F3F7FE4DC2E72DEF5FEC87D9
:103CB000872D9927C816D90614F0772401C07C18DF
:103CC0001C141D041CF021E030E003C096012F5F9E
:103CD0003F4F112311F02F5F3F4F772021F02F5FCF
:103CE0003F4F270D311D862D99272817390714F0CE
:103CF000662401C0621AAF2CBB24C5018970907084
:103D0000892B39F008C0B40180E290E00E94A22122
:103D10006A946620C1F7112329F0B401812F9927F5
:103D20000E94A221A3FE07C008C0B40180E390E076
:103D30000E94A2216A946620C1F7F7FE46C0860160
:103D4000D7FE02C000E010E07601E01AF10AEC0EA6
:103D5000FD1E22E030E0E20EF31E3FEF0F3F13079F
:103D600029F4B4018EE290E00E94A221C016D1068F
:103D700054F0C6014C85841B9109801791071CF4EF
:103D8000F701208101C020E3015010400894E11C9C
:103D9000F11C872D9927909581959F4F081719073A
:103DA00034F0B401822F99270E94A221D6CF0C159E
:103DB0001D0539F48A81863318F4853311F424FE05
:103DC00021E3B401822F992749C08A81813309F008
:103DD0000F7EB40199270E94A221772089F0B401B7
:103DE0008EE290E00E94A22112E0FE01E10FF11D9F
:103DF00081811F5FB40199270E94A2217A94A9F7BB
:103E0000A4FE03C085E490E002C085E690E0B40122
:103E10000E94A221D7FC05C0C114D10441F404FFC3
:103E200006C0D094C194D108D3948DE201C08BE236
:103E3000B40199270E94A22180E305C08F5F26EF7D
:103E40003FEFC20ED31E3AE0C316D104BCF7B40153
:103E500099270E94A221B401C601C0960E94A22106
:103E60006AC1933631F09337A1F0933509F05CC005
:103E700025C0A8014E5F5F4F5E874D87F8018081A6
:103E800089837E010894E11CF11C41E0C42ED12CF1
:103E900012C0F801E080F180B6FC03C06FEF7FEF45
:103EA00002C0672D77270E5F1F4F1E870D87C70142
:103EB0000E9497216C011B2D1F7714C0F801E08030
:103EC000F180B6FC03C06FEF7FEF02C0672D77274C
:103ED0000E5F1F4F1E870D87C7010E9485216C0151
:103EE0001B2D106813FF07C01BC0B40180E290E0D7
:103EF0000E94A2216A94862D9927C816D906A8F394
:103F00000FC0F70117FD859117FF81917F01B40163
:103F100099270E94A22161106A940894C108D108CF
:103F2000C114D10471F707C1943611F09936A1F587
:103F3000B7FE0BC098012C5F3F4F3E872D87F801DD
:103F400060817181828193810EC098012E5F3F4F05
:103F50003E872D87F801808191819C01B9018827D6
:103F600077FD8095982F3FE6D32EDB2097FF09C081
:103F700090958095709561957F4F8F4F9F4F30E85A
:103F8000D32A8E010F5F1F4F2AE030E0A8010E9464
:103F90000122801B082F4EC0953731F42FEEF22EF0
:103FA000FB202AE030E023C099EFF92EFB202F36CA
:103FB00061F0203720F4283509F0C0C012C0203746
:103FC00039F0283709F0BAC005C028E030E00FC04A
:103FD00040E1F42AF4FE02C054E0F52A20E130E08A
:103FE00006C0F4FE02C086E0F82A20E132E0F7FEC7
:103FF0000AC0F8013496FE87ED87F801608171816F
:10400000828193810CC0A8014E5F5F4F5E874D8710
:10401000F80180819181AC01BA01882799278E012E
:104020000F5F1F4FA8010E940122801B082F8FE7FE
:10403000D82EDF20D6FE10C05EEFD522071560F423
:104040002D2D332724FF1AC022FF02C0172D09C0CF
:104050008FEED822172D01C0102F2D2D332724FFCE
:104060000EC0FE01E00FF11D8081803319F499EE3E
:10407000D92209C01F5F22FF06C004C0172D822F5E
:10408000867809F01F5FED2CFF24E3FC14C0E0FEEE
:104090000FC0161510F0702E0BC0762C711A700E12
:1040A000162D06C0B40180E290E00E94A2211F5F9D
:1040B0001615C0F304C0161510F4611A01C0662469
:1040C000E4FE10C0B40180E390E00E94A221E2FE71
:1040D0001EC0E1FE03C088E590E002C088E790E0E2
:1040E000B4010CC08E2D867891F0E1FE02C08BE207
:1040F00001C080E2D7FC8DE2B40199270E94A22181
:1041000006C0B40180E390E00E94A2217A940715D2
:10411000C0F30150FE01E00FF11D8181B401992728
:104120000E94A221002339F0F4CFB40180E290E094
:104130000E94A2216A946620C1F786CCF401868190
:10414000978103C025E030E0C4CDE2E12E960C94C7
:10415000DD27662777270C945F22283008F027E0B8
:104160003327DA01990F311D87FD916000966105B3
:10417000710539F432602E5F3D9330E32A95E1F703
:1041800008959F3F30F080387105610509F03C5F6C
:104190003C5F3D93913008F08068911DDF93CF9391
:1041A0001F930F93FF92EF92192F987F9695E92F07
:1041B00096959695E90FFF27E05AFE4F99273327EA
:1041C000EE24FF24A701E70105900894079428F442
:1041D000360FE71EF81E491F511D660F771F881FF7
:1041E000991F0694A1F70590079428F4E70EF81E8E
:1041F000491F561FC11D770F881F991F661F069400
:10420000A1F70590079428F4F80E491F561FC71F01
:10421000D11D880F991F661F771F0694A1F705907F
:10422000079420F4490F561FC71FD81F990F661F08
:10423000771F881F0694A9F784911095177041F095
:10424000D695C79557954795F794E7941A95C1F772
:10425000E6E0F1E06894159015913591659195919E
:1042600005907FE27395E118F10A430B560BC90BD9
:10427000D009C0F7E10CF11E431F561FC91FD01D06
:104280007EF4703311F48A95E6CFE894015030F053
:10429000080F0AF40027021708F4202F2395022F95
:1042A0007A3328F079E37D932A95E9F710C07D935E
:1042B0002A9589F6069497956795379517951794DB
:1042C000E118F10A430B560BC90BD00998F023955E
:1042D0007E9173957A3308F070E37C932013B8F7DE
:1042E0007E9170617D9330F0839571E37D9370E3EF
:1042F0002A95E1F71124EF90FF900F911F91CF9134
:10430000DF91992787FD90950895FC0105906150F4
:1043100070400110D8F7809590958E0F9F1F0895DB
:10432000FB01DC0101900D920020E1F70895FC01F2
:104330006150704001900110D8F7809590958E0FD4
:104340009F1F08950F931F93CF93DF938C01EB0171
:104350008B81992781FF1BC082FF0DC02E813F8179
:104360008C819D812817390764F4E881F9810193D4
:10437000F983E88306C0E885F985802F0995892BA4
:1043800031F48E819F8101969F838E8302C00FEF4F
:104390001FEFC801DF91CF911F910F910895A0E108
:1043A000B0E0E5EDF1E20C94CF270F89188D898DEF
:1043B0009A8D97FF02C080E090E8019798878F83DD
:1043C0001C830B8386E08E83AE01435E5F4F5A836E
:1043D00049836B8D7C8DCE0103960E94121D2F8127
:1043E000388537FD0AC049855A85421753070CF4B2
:1043F0009A01020F131FF8011082E4E060960C94FA
:10440000EB27FA01AA27283051F1203181F1E894F5
:104410006F936E7F6E5F7F4F8F4F9F4FAF4FB1E0B7
:104420003ED0B4E03CD0670F781F891F9A1FA11DB2
:10443000680F791F8A1F911DA11D6A0F711D811DB3
:10444000911DA11D20D009F468943F912AE0269F78
:1044500011243019305D3193DEF6CF010895462FD7
:104460004770405D4193B3E00FD0C9F7F6CF462FB8
:104470004F70405D4A3318F0495D31FD4052419321
:1044800002D0A9F7EACFB4E0A695979587957795DE
:104490006795BA95C9F700976105710508959B0165
:1044A000AC010A2E06945795479537952795BA95EE
:1044B000C9F7620F731F841F951FA01D0895A0E008
:1044C000B0E0E5E6F2E20C94C527EC015B01611572
:1044D000710519F0FB0191838083D9908D2D992767
:1044E0000E941A28892BC9F7FDE2DF1621F4D99022
:1044F000F1E0CF2E05C08BE2D81609F4D990CC2478
:104500008E010150104043E050E060E072E0C801CD
:104510000E94AC23892B09F58E010E5F1F4F45E0E9
:1045200050E063E072E0C8010E94AC23892B19F4CB
:104530008E01095F1F4FA114B10419F0F501118319
:104540000083C0FE05C060E070E080E89FEFFFC020
:1045500060E070E080E89FE7FAC043E050E068E088
:1045600072E0C8010E94AC23892B61F4A114B1044C
:1045700021F02296F501D183C08360E070E080ECE9
:104580009FE7E5C088249924EE24FF2487014D2D60
:1045900040534A30A8F5F2E0CF2A8C2D99279C0190
:1045A0002870307082FF06C0232B81F50894811C8F
:1045B000911C2CC0232B19F0089481089108D80174
:1045C000C701E2E0880F991FAA1FBB1FEA95D1F728
:1045D000E80EF91E0A1F1B1FEE0CFF1C001F111F07
:1045E000E40EF11C011D111D88E9E81689E9F806A1
:1045F00089E9080789E1180748F0E4E0CE2A06C0F7
:104600004E3F31F4C3FC3AC0F8E0CF2AD990BFCF77
:10461000453311F0453191F589918D3219F480E1DE
:10462000C82A05C08B3219F021E030E003C089911F
:1046300022E030E0482F40534A3018F420E030E0C8
:1046400007C0C21BD30B1AC0ECE020383E075CF455
:10465000C901880F991F880F991F280F391F220F32
:10466000331F240F311D499140534A3068F3C4FE73
:1046700003C0309521953F4F820E931EDD2492E0BA
:10468000692E712C6C207D20C1FE07C0A114B104DD
:1046900021F02197F501D183C083C801B7010E94A1
:1046A00022287B018C01C0FE06C0672821F017FB81
:1046B000109517F910955701680120E030E040E0AF
:1046C00050E0C801B7010E948B24882309F43DC043
:1046D00097FE07C0CFE1D2E0909481949108939423
:1046E00002C0C7E3D2E000E210E00DC0FE01259158
:1046F000359145915491C601B5010E9467265B0131
:104700006C01801A910A8016910684F71595079519
:104710000115110511F02497F6CF860175018C2D36
:10472000880F8D2D881F8F3F51F020E030E040E052
:1047300050E0C601B5010E948B24882331F482E247
:1047400090E090939A0A8093990AC801B701EEE02D
:10475000CDB7DEB70C94E127FB01DC01415050409E
:1047600088F08D9181341CF08B350CF4805E65915E
:1047700061341CF06B350CF4605E861B611171F3C3
:10478000990B0895881BFCCF5058BB27AA270ED041
:1047900031C2F1D130F0F6D120F031F49F3F11F465
:1047A0001EF4C1C10EF4E095E7FB8CC1E92F44D2A1
:1047B00080F3BA17620773078407950718F071F43E
:1047C0009EF573C20EF4E0950B2EBA2FA02D0B01AF
:1047D000B90190010C01CA01A0011124FF27591B46
:1047E00099F0593F50F4503E68F11A16F040A22F4C
:1047F000232F342F4427585FF3CF469537952795BD
:10480000A795F0405395C9F77EF41F16BA0B620BBB
:10481000730B840BBAF09150A1F0FF0FBB1F661F02
:10482000771F881FC2F70EC0BA0F621F731F841F45
:1048300048F4879577956795B795F7959E3F08F06B
:10484000B3CF9395880F08F09927EE0F979587952A
:10485000089591D158F080E891E009F49EEF92D14B
:1048600028F040E851E059F45EEF09C05CC11DC278
:10487000E92FE078E1D168F3092E052AC1F3261764
:1048800037074807590738F00E2E07F8E02569F07A
:10489000E025E0640AC0EF6307F8009407FADB0143
:1048A000B9019D01DC01CA01AD01EF934AD0A2D14B
:1048B0000AD05F91552331F02BED3FE049E450FDE4
:1048C00049EC63CF0895DF93DD27B92FBF7740E828
:1048D0005FE31616170648075B0710F4D92FF0D1CF
:1048E0009F938F937F936F93A9D2E0E9F0E01ED15D
:1048F00081D12F913F914F915F91F5D1DD2349F007
:104900009058A2EA2AED3FE049EC5FE3D0785D27BA
:104910004DDFDF916FC1B2D008F481E008953AD144
:10492000E39579C10CD066C12DD140F024D130F08F
:1049300021F45F3F19F0C6C05111B8C1F4C07CD159
:1049400098F39923C9F35523B1F3951B550BBB2756
:10495000AA2762177307840738F09F5F5F4F220F03
:10496000331F441FAA1FA9F333D00E2E3AF0E0E8FC
:1049700030D091505040E695001CCAF729D0FE2F48
:1049800027D0660F771F881FBB1F261737074807DA
:10499000AB07B0E809F0BB0B802DBF01FF27935890
:1049A0005F4F2AF09E3F510568F08CC07FC15F3F8A
:1049B000ECF3983EDCF3869577956795B795F79578
:1049C0009F5FC9F7880F911D9695879597F9089570
:1049D000E1E0660F771F881FBB1F6217730784070C
:1049E000BA0720F0621B730B840BBA0BEE1F88F71B
:1049F000E095089504D06894B11158C1089524D168
:104A000088F09F5790F0B92F9927B751A0F0D1F0B7
:104A1000660F771F881F991F1AF0BA95C9F712C041
:104A2000B13081F042D1B1E008953FC1672F782FB6
:104A30008827B85F39F0B93FCCF3869577956795AD
:104A4000B395D9F73EF490958095709561957F4F19
:104A50008F4F9F4F089512D180F09F3740F49111EE
:104A60000EF024C160E070E080E89FEB089526F42A
:104A70001B16611D711D811D2BC045C0990F0008BB
:104A8000550FAA0BE0E8FEEF16161706E807F90720
:104A9000C0F012161306E407F50798F0621B730BBB
:104AA000840B950B39F40A2661F0232B242B252B3C
:104AB00021F408950A2609F4A140A6958FEF811DDF
:104AC000811D089597F99F6780E870E060E0089580
:104AD000882371F4772321F09850872B762F07C015
:104AE000662311F499270DC09051862B70E060E089
:104AF0002AF09A95660F771F881FDAF7880F969528
:104B0000879597F908959F3F49F0915028F486952D
:104B100077956795B7959F5F80389F4F880F9695DB
:104B2000879597F908959FEF80EC0895DF93CF93D1
:104B30001F930F93FF92EF92DF927B018C01689499
:104B400005C0DA2EEF01CFD0FE01E894A5912591A2
:104B5000359145915591AEF3EF0128DEFE019701A5
:104B6000A801DA9479F7DF90EF90FF900F911F91F1
:104B7000CF91DF91089500240A941616170618069F
:104B80000906089500240A94121613061406050651
:104B90000895C9CF59D0E8F3E894EFEFBB273FE081
:104BA00048EC5FE76B3D73078407950708F1FF2723
:104BB0009F57B25A6A4D7F40894CF04032F4BE553F
:104BC0006542704F8643FF4F0894EE1F915030F0BE
:104BD000BB0F661F771F881FFF1FEBCF9EE7882341
:104BE00032F0BB0F661F771F881F9A95C1F7939508
:104BF000E09589CF092E0394000C11F4882352F01C
:104C0000BB0F40F4BF2B11F460FF04C06F5F7F4FF8
:104C10008F4F9F4F0895EF93E0FF06C0A2EA2AED61
:104C20003FE049EC5FEBC2DDE5DF0F90039401FC50
:104C30009058EDEBF0E02CC157FD9058440F551FF4
:104C400059F05F3F71F04795880F97FB991F61F00E
:104C50009F3F79F087950895121613061406551F85
:104C6000F2CF4695F1DF08C0161617061806991FF1
:104C7000F1CF86957105610508940895E5DFA0F0F0
:104C8000BEE7B91788F4BB279F3860F41616B11D2C
:104C9000672F782F8827985FF7CF86957795679548
:104CA000B11D93959639C8F30895E894BB276627FC
:104CB0007727CB0197F90895E1DE08F48FEF089587
:104CC0009B01AC0160E070E080E89FE32BCE0BD04D
:104CD00091CF51DF28F056DF18F0952309F0F2CE7E
:104CE00022CF1124E3CFA8DFA0F3959FD1F3950F36
:104CF00050E0551F629FF001729FBB27F00DB11D60
:104D0000639FAA27F00DB11DAA1F649F6627B00DEF
:104D1000A11D661F829F2227B00DA11D621F739FD8
:104D2000B00DA11D621F839FA00D611D221F749FE6
:104D30003327A00D611D231F849F600D211D822F2D
:104D4000762F6A2F11249F5750408AF0E1F0882374
:104D50004AF0EE0FFF1FBB1F661F771F881F915081
:104D60005040A9F79E3F510570F0ACCE9FCF5F3FFA
:104D7000ECF3983EDCF3869577956795B795F795B4
:104D8000E7959F5FC1F7FE2B880F911D969587953C
:104D900097F908959F93FEDE0F9007FCEE5F3BCFDF
:104DA00011F40EF4C0CEAFCE4FDFD0F39923D9F378
:104DB000CEF39F57550B87FF64D056959795B0E07B
:104DC00020F4660F771F881FBB1F1F930F930024CB
:104DD0009001A0018001F001A0E80E0F1F1F0A1E24
:104DE000511D601B710B8009B50B48F4600F711FDA
:104DF000801DB51F0E1B1F0B0A0A510907C02E0F7D
:104E00003F1F4A1F0E0F1F1F0A1E511D660F771FDF
:104E1000881FBB1FA695F795E795F8F606171707A5
:104E200008065B07211D311D411D0F911F91B9011E
:104E3000842F9158880F9695879508959B01AC0112
:104E400046CFDF93D92FA6DEE695D7952AED3FE032
:104E500049E45FE3B33A6207730784079507D79580
:104E60002AF0A2EA49EC9068A1DCC4DEEBEDF0E0A8
:104E70000FD0DD0F0BF024DFDD0F0BF49058DF9126
:104E8000089591505040660F771F881FD2F70895FC
:104E90009F938F937F936F93FF93EF939B01AC014D
:104EA00016DFEF91FF9142DE2F913F914F915F917D
:104EB0000ECF629FD001739FF001829FE00DF11D24
:104EC000649FE00DF11D929FF00D839FF00D749F84
:104ED000F00D659FF00D9927729FB00DE11DF91F30
:104EE000639FB00DE11DF91FBD01CF01112408958D
:104EF000AA1BBB1B51E107C0AA1FBB1FA617B70700
:104F000010F0A61BB70B881F991F5A95A9F780951B
:104F10009095BC01CD01089597FB092E07260AD074
:104F200077FD04D0E5DF06D000201AF47095619576
:104F30007F4F0895F6F7909581959F4F0895A1E2D0
:104F40001A2EAA1BBB1BFD010DC0AA1FBB1FEE1F03
:104F5000FF1FA217B307E407F50720F0A21BB30B4E
:104F6000E40BF50B661F771F881F991F1A9469F7CA
:104F700060957095809590959B01AC01BD01CF0126
:104F800008952F923F924F925F926F927F928F92ED
:104F90009F92AF92BF92CF92DF92EF92FF920F93C8
:104FA0001F93CF93DF93CDB7DEB7CA1BDB0B0FB6D2
:104FB000F894DEBF0FBECDBF09942A88398848888F
:104FC0005F846E847D848C849B84AA84B984C88425
:104FD000DF80EE80FD800C811B81AA81B981CE0F1C
:104FE000D11D0FB6F894DEBF0FBECDBFED01089501
:104FF000EE0FFF1F0590F491E02D0994911106C06A
:1050000080538A5010F0865C06C00895992788273F
:10501000089585FDFBCF80629111F8CF81568A51AA
:10502000E0F708959111089581568A5108F480524D
:10503000855808959111EACF803219F08950855032
:10504000D0F70895E89409C097FB3EF490958095B9
:10505000709561957F4F8F4F9F4F9923A9F0F92F3E
:1050600096E9BB279395F695879577956795B795BC
:10507000F111F8CFFAF4BB0F11F460FF1BC06F5FA2
:105080007F4F8F4F9F4F16C0882311F096E911C0B4
:10509000772321F09EE8872F762F05C0662371F0D5
:1050A00096E8862F70E060E02AF09A95660F771FE9
:1050B000881FDAF7880F9695879597F90895F894E1
:0250C000FFCF20
:1050C200736420636172643A0A636F6E6E6563741F
:1050D200696E6700736420636172643A206572725C
:1050E2006F720A00475053202E2E2E004750532035
:1050F200466978696E672025630A004163717569A4
:1051020072656420466978006C6F673A2066696E42
:10511200697368696E672E2E0A004C6F737420479C
:105122005053204669782025630A00493A202564B5
:10513200B220463A202564B20A4D673A2025646DB2
:105142002053703A202564000D0A005344206572F2
:10515200726F723A0A77726974696E672073656357
:10516200746F72005344206572726F723A0A7265EC
:105172006164696E6720736563746F720065727231
:105182006F723A2070726F626C656D0A726561644B
:10519200696E6720736563746F7200696E6974204B
:1051A200706172742E202325640A006572726F7218
:1051B2003A20626164204D42520A006572726F7237
:1051C2003A206E6F742046415433320A006572727F
:1051D2006F723A20736563746F7220726561640A3C
:1051E200006572726F723A206E6F6E2D35313262C7
:1051F20020736563746F72730A007761726E696EF1
:10520200673A206E6F740A6D6972726F72656420FC
:1052120046415473006572726F723A206D697373FE
:10522200696E6720566F6C204944207369670A00D3
:1052320066696C6573797374656D0A697320667546
:105242006C6C002E002E2E00245053524631303307
:105252002C30302C30302C30302C30312A0024507D
:105262005352463130332C30312C30302C30302CEC
:1052720030312A0024505352463130332C30322CF4
:1052820030302C30302C30312A00245053524631E9
:1052920030332C30332C30302C30302C30312A004B
:1052A20024505352463130332C30342C30302C3091
:1052B200312C30312A0024505352463130332C30B5
:1052C200352C30302C30302C30312A006C6F672E68
:1052D2006B6D6C002E2E002564006C6F673A2023E4
:1052E20025640A7374617274696E672E2E2E006CC7
:1052F2006F673A206572726F720A6E616D65206E19
:105302006F7420756E697175650053706565643AD6
:1053120020252E32666D2F733C62723E3C62723ED5
:10532200003C753E46726F6D2053746172743A3C54
:105332002F753E3C62723E446973706C6163656DA9
:10534200656E743A2025646D3C62723E00496E6956
:105352007469616C3A202564266465673B266E6237
:1053620073703B266E6273703B0046696E616C3AE5
:10537200202564266465673B3C62723E00256325F6
:10538200632F256325632F2563256320256325630A
:105392003A256325633A2563256320474D5400254A
:1053A2002E37662C252E3766003C3F786D6C2076B2
:1053B200657273696F6E3D22312E302220656E63F5
:1053C2006F64696E673D225554462D38223F3E0A6E
:1053D2003C6B6D6C20786D6C6E733D2268747470DA
:1053E2003A2F2F65617274682E676F6F676C652E36
:1053F200636F6D2F6B6D6C2F322E30223E0A3C4450
:105402006F63756D656E743E0A3C6E616D653E54E8
:105412007261696C7669657720506174683C2F6EA1
:10542200616D653E0A003C2F446F63756D656E7455
:105432003E0A3C2F6B6D6C3E003C506C6163656DA7
:1054420061726B3E0A3C6465736372697074696F62
:105452006E3E3C215B43444154415B005D5D3E3CFA
:105462002F6465736372697074696F6E3E0A3C6E75
:10547200616D653E003C2F6E616D653E0A3C506F6A
:10548200696E743E0A3C636F6F7264696E61746523
:10549200733E003C2F636F6F7264696E6174657353
:1054A2003E0A3C2F506F696E743E0A3C2F506C616D
:1054B20063656D61726B3E0A0A003C696D67207319
:1054C20072633D2200222077696474683D22323083
:1054D20030223E0063616D6572613A2073796E63BA
:1054E200696E670A0063616D657261206572726F31
:1054F200723A0A696E69742074696D656F75740019
:1055020063616D657261206572726F723A0A6D69CC
:105512007373696E672073796E630063616D657280
:10552200613A2070686F746F00536176696E673AF2
:105532002025646B420A0063616D657261206572A9
:10554200726F723A0A7061636B65740063616D65B4
:0E55520072613A2073617665640A00FFD90029
:00000001FF
